{
  "_format": "hh-sol-artifact-1",
  "contractName": "CarRentalUpgradeable",
  "sourceName": "contracts/CarRentalUpgradeable.sol",
  "abi": [
    {
      "inputs": [],
      "stateMutability": "nonpayable",
      "type": "constructor"
    },
    {
      "inputs": [],
      "name": "InvalidInitialization",
      "type": "error"
    },
    {
      "inputs": [],
      "name": "NotInitializing",
      "type": "error"
    },
    {
      "inputs": [],
      "name": "ReentrancyGuardReentrantCall",
      "type": "error"
    },
    {
      "anonymous": false,
      "inputs": [
        {
          "indexed": false,
          "internalType": "uint64",
          "name": "version",
          "type": "uint64"
        }
      ],
      "name": "Initialized",
      "type": "event"
    },
    {
      "anonymous": false,
      "inputs": [
        {
          "indexed": false,
          "internalType": "uint256",
          "name": "rentalId",
          "type": "uint256"
        },
        {
          "indexed": false,
          "internalType": "address",
          "name": "renter",
          "type": "address"
        },
        {
          "indexed": false,
          "internalType": "address",
          "name": "owner",
          "type": "address"
        }
      ],
      "name": "RentalCancelled",
      "type": "event"
    },
    {
      "anonymous": false,
      "inputs": [
        {
          "indexed": false,
          "internalType": "uint256",
          "name": "rentalId",
          "type": "uint256"
        },
        {
          "indexed": false,
          "internalType": "address",
          "name": "renter",
          "type": "address"
        },
        {
          "indexed": false,
          "internalType": "address",
          "name": "owner",
          "type": "address"
        }
      ],
      "name": "RentalCompleted",
      "type": "event"
    },
    {
      "anonymous": false,
      "inputs": [
        {
          "indexed": false,
          "internalType": "uint256",
          "name": "rentalId",
          "type": "uint256"
        },
        {
          "indexed": false,
          "internalType": "address",
          "name": "renter",
          "type": "address"
        },
        {
          "indexed": false,
          "internalType": "address",
          "name": "owner",
          "type": "address"
        },
        {
          "indexed": false,
          "internalType": "uint256",
          "name": "totalAmount",
          "type": "uint256"
        }
      ],
      "name": "RentalInitiated",
      "type": "event"
    },
    {
      "inputs": [
        {
          "internalType": "uint256",
          "name": "rentalId",
          "type": "uint256"
        }
      ],
      "name": "cancelRental",
      "outputs": [],
      "stateMutability": "nonpayable",
      "type": "function"
    },
    {
      "inputs": [],
      "name": "chaindriveWallet",
      "outputs": [
        {
          "internalType": "address payable",
          "name": "",
          "type": "address"
        }
      ],
      "stateMutability": "view",
      "type": "function"
    },
    {
      "inputs": [
        {
          "internalType": "uint256",
          "name": "rentalId",
          "type": "uint256"
        }
      ],
      "name": "completeRentalByOwner",
      "outputs": [],
      "stateMutability": "nonpayable",
      "type": "function"
    },
    {
      "inputs": [
        {
          "internalType": "uint256",
          "name": "rentalId",
          "type": "uint256"
        }
      ],
      "name": "completeRentalByRenter",
      "outputs": [],
      "stateMutability": "nonpayable",
      "type": "function"
    },
    {
      "inputs": [],
      "name": "getBalance",
      "outputs": [
        {
          "internalType": "uint256",
          "name": "",
          "type": "uint256"
        }
      ],
      "stateMutability": "view",
      "type": "function"
    },
    {
      "inputs": [
        {
          "internalType": "address payable",
          "name": "_chaindriveWallet",
          "type": "address"
        }
      ],
      "name": "initialize",
      "outputs": [],
      "stateMutability": "nonpayable",
      "type": "function"
    },
    {
      "inputs": [
        {
          "internalType": "uint256",
          "name": "id",
          "type": "uint256"
        },
        {
          "internalType": "address payable",
          "name": "owner",
          "type": "address"
        },
        {
          "internalType": "uint256",
          "name": "rentalFee",
          "type": "uint256"
        },
        {
          "internalType": "uint256",
          "name": "securityDeposit",
          "type": "uint256"
        },
        {
          "internalType": "uint256",
          "name": "platformFee",
          "type": "uint256"
        }
      ],
      "name": "initiateRental",
      "outputs": [],
      "stateMutability": "payable",
      "type": "function"
    },
    {
      "inputs": [
        {
          "internalType": "uint256",
          "name": "",
          "type": "uint256"
        }
      ],
      "name": "rentals",
      "outputs": [
        {
          "internalType": "uint256",
          "name": "id",
          "type": "uint256"
        },
        {
          "internalType": "address payable",
          "name": "renter",
          "type": "address"
        },
        {
          "internalType": "address payable",
          "name": "owner",
          "type": "address"
        },
        {
          "internalType": "uint256",
          "name": "rentalFee",
          "type": "uint256"
        },
        {
          "internalType": "uint256",
          "name": "securityDeposit",
          "type": "uint256"
        },
        {
          "internalType": "uint256",
          "name": "platformFee",
          "type": "uint256"
        },
        {
          "internalType": "bool",
          "name": "renterConfirmed",
          "type": "bool"
        },
        {
          "internalType": "bool",
          "name": "ownerConfirmed",
          "type": "bool"
        },
        {
          "internalType": "bool",
          "name": "isCompleted",
          "type": "bool"
        }
      ],
      "stateMutability": "view",
      "type": "function"
    }
  ],
  "bytecode": "0x608080604052346100b8577ff0c57e16840df040f15088dc2f81fe391c3923bec73e23a9662efc9c229c6a009081549060ff8260401c166100a957506001600160401b036002600160401b031982821601610064575b604051610c5d90816100be8239f35b6001600160401b031990911681179091556040519081527fc7f505b2f371ae2175ee4913f4499e1f2633a7b5936321eed1cdaeb6115181d290602090a1388080610055565b63f92ee8a960e01b8152600490fd5b600080fdfe6080604081815260048036101561001557600080fd5b600092833560e01c90816312065fe014610a715750806343ba1a1814610851578063517f497f146106365780635e0dacb4146104b0578063af94a1d11461041d578063c4d66de8146102c0578063e09bd829146102945763f1e667611461007b57600080fd5b60a0366003190112610290578035916024356001600160a01b03818116929183900361028c5760443560643594608435906100bf826100ba8986610acc565b610acc565b9687340361025257888a526001602052846001878c2001541661020f57855193610120850185811067ffffffffffffffff8211176101fc57948a9896948c947f1bf856314f46d6f760c45c4f899a307630d861d60201acee1b3a3ff7c0d7c9539c946006948b9960809e9c52868552602085013381528a8601908c8252606087019283528f870193845260a0870195865260c087019a8a8c528c60e089019b808d526101008a019b818d528152600160205220975188558060018901925116916bffffffffffffffffffffffff60a01b92838254161790556002880192511690825416179055516003850155519083015551600582015501925115159160ff62ff000061ff0086549351151560081b169351151560101b1693169062ffffff1916171717905580519384523360208501528301526060820152a180f35b634e487b7160e01b8c526041845260248cfd5b855162461bcd60e51b8152602081840152601860248201527f52656e74616c20494420616c72656164792065786973747300000000000000006044820152606490fd5b855162461bcd60e51b81526020818401526014602482015273125b98dbdc9c9958dd0811551208185b5bdd5b9d60621b6044820152606490fd5b8580fd5b8280fd5b5050346102bc57816003193601126102bc57905490516001600160a01b039091168152602090f35b5080fd5b50346102905760203660031901126102905780356001600160a01b0381169190829003610419577ff0c57e16840df040f15088dc2f81fe391c3923bec73e23a9662efc9c229c6a0091825460ff81861c16159267ffffffffffffffff821680159081610411575b6001149081610407575b1590816103fe575b506103f0575067ffffffffffffffff1981166001178455826103d1575b5061035f610a8b565b610367610a8b565b6001600080516020610c088339815191525584546001600160a01b031916178455610390578280f35b805468ff00000000000000001916905551600181527fc7f505b2f371ae2175ee4913f4499e1f2633a7b5936321eed1cdaeb6115181d290602090a138808280f35b68ffffffffffffffffff19166801000000000000000117835538610356565b855163f92ee8a960e01b8152fd5b90501538610339565b303b159150610331565b859150610327565b8380fd5b50346102905760203660031901126102905780826101209460ff9335815260016020522080549360018060a01b03928360018401541693600284015416600384015491840154926006600586015495015495815198895260208901528701526060860152608085015260a0840152818116151560c0840152818160081c16151560e084015260101c161515610100820152f35b508290346102bc5760203660031901126102bc5780356104ce610bd7565b8083526001602052838320916006830180546104f060ff8260101c1615610b2a565b60ff8160081c166105e757620100009062ff0000191617905561052961051e60038501548386015490610acc565b600585015490610acc565b9060018401908580808060018060a01b0396878754165af1610549610b76565b50156105b45750546002939093015494519182526001600160a01b0392811683166020830152909316166040830152907fa4d7b315f71fd1fa270b50b01e7f22ad30201085cf9afe9c1c3d1b8fa7d9c69290606090a16001600080516020610c088339815191525580f35b606490602088519162461bcd60e51b8352820152600d60248201526c1499599d5b990819985a5b1959609a1b6044820152fd5b865162461bcd60e51b8152602081850152602360248201527f43616e6e6f742063616e63656c206166746572206f776e657220636f6e6669726044820152621b595960ea1b6064820152608490fd5b508290346102bc576020806003193601126102905781358084526001928383528585209060ff600660018060a01b03936106768589830154163314610aef565b01868154610689848260101c1615610b2a565b8319161780915560081c1661069c578580f35b6106a4610bd7565b82865284845286862090600682016201000062ff00001982541617905586808080868154166005870154905af16106d9610b76565b501561080e57600282019487808080878a54166003880154905af16106fc610b76565b50156107cc57878080808a8701968689895416910154905af161071d610b76565b501561078a57505054925495519182526001600160a01b039281168316602083015290941616604084015290917f96daffe51b50473e14b367a1cea4498415ad12875d80c21d6c8c0a097677c3c490606090a1600080516020610c08833981519152558082808080808580f35b885162461bcd60e51b815291820152601e60248201527f5365637572697479206465706f73697420726566756e64206661696c65640000604482015260649150fd5b885162461bcd60e51b815291820152601a60248201527f52656e74616c20666565207472616e73666572206661696c6564000000000000604482015260649150fd5b875162461bcd60e51b8152908101859052601c60248201527f506c6174666f726d20666565207472616e73666572206661696c6564000000006044820152606490fd5b508290346102bc576020908160031936011261029057803590818452600183528484209060ff600660018060a01b0393610892856002830154163314610aef565b018054906108a5838360101c1615610b2a565b61ff00198216610100179055166108ba578480f35b6108c2610bd7565b8285526001845285852090600682016201000062ff00001982541617905585808080868154166005870154905af16108f8610b76565b5015610a2e57600282019486808080878a54166003880154905af161091b610b76565b50156109ec578680808060018701968689895416910154905af161093d610b76565b50156109aa57505054925494519182526001600160a01b0392811683166020830152909316166040830152907f96daffe51b50473e14b367a1cea4498415ad12875d80c21d6c8c0a097677c3c490606090a16001600080516020610c088339815191525580828080808480f35b875162461bcd60e51b815291820152601e60248201527f5365637572697479206465706f73697420726566756e64206661696c65640000604482015260649150fd5b875162461bcd60e51b815291820152601a60248201527f52656e74616c20666565207472616e73666572206661696c6564000000000000604482015260649150fd5b865162461bcd60e51b8152908101859052601c60248201527f506c6174666f726d20666565207472616e73666572206661696c6564000000006044820152606490fd5b8490346102bc57816003193601126102bc57602090478152f35b60ff7ff0c57e16840df040f15088dc2f81fe391c3923bec73e23a9662efc9c229c6a005460401c1615610aba57565b604051631afcd79f60e31b8152600490fd5b91908201809211610ad957565b634e487b7160e01b600052601160045260246000fd5b15610af657565b60405162461bcd60e51b815260206004820152600c60248201526b155b985d5d1a1bdc9a5e995960a21b6044820152606490fd5b15610b3157565b60405162461bcd60e51b815260206004820152601860248201527f52656e74616c20616c726561647920636f6d706c6574656400000000000000006044820152606490fd5b3d15610bd25767ffffffffffffffff903d828111610bbc5760405192601f8201601f19908116603f0116840190811184821017610bbc5760405282523d6000602084013e565b634e487b7160e01b600052604160045260246000fd5b606090565b600080516020610c088339815191526002815414610bf55760029055565b604051633ee5aeb560e01b8152600490fdfe9b779b17422d0df92223018b32b4d1fa46e071723d6817e2486d003becc55f00a26469706673582212206932cd43d4aac415a07bd8b392768e2ac6cc72b32678a7daee09adb073b2389164736f6c63430008140033",
  "linkReferences": {},
  "deployedLinkReferences": {}
}