{
  "_format": "hh-sol-artifact-1",
  "contractName": "CarRentalUpgradeable",
  "sourceName": "contracts/CarRentalUpgradeable.sol",
  "abi": [
    {
      "inputs": [],
      "stateMutability": "nonpayable",
      "type": "constructor"
    },
    {
      "inputs": [],
      "name": "InvalidInitialization",
      "type": "error"
    },
    {
      "inputs": [],
      "name": "NotInitializing",
      "type": "error"
    },
    {
      "inputs": [],
      "name": "ReentrancyGuardReentrantCall",
      "type": "error"
    },
    {
      "anonymous": false,
      "inputs": [
        {
          "indexed": false,
          "internalType": "uint64",
          "name": "version",
          "type": "uint64"
        }
      ],
      "name": "Initialized",
      "type": "event"
    },
    {
      "anonymous": false,
      "inputs": [
        {
          "indexed": false,
          "internalType": "uint256",
          "name": "rentalId",
          "type": "uint256"
        },
        {
          "indexed": false,
          "internalType": "address",
          "name": "renter",
          "type": "address"
        },
        {
          "indexed": false,
          "internalType": "address",
          "name": "owner",
          "type": "address"
        }
      ],
      "name": "RentalCancelled",
      "type": "event"
    },
    {
      "anonymous": false,
      "inputs": [
        {
          "indexed": false,
          "internalType": "uint256",
          "name": "rentalId",
          "type": "uint256"
        },
        {
          "indexed": false,
          "internalType": "address",
          "name": "renter",
          "type": "address"
        },
        {
          "indexed": false,
          "internalType": "address",
          "name": "owner",
          "type": "address"
        }
      ],
      "name": "RentalCompleted",
      "type": "event"
    },
    {
      "anonymous": false,
      "inputs": [
        {
          "indexed": false,
          "internalType": "uint256",
          "name": "rentalId",
          "type": "uint256"
        },
        {
          "indexed": false,
          "internalType": "address",
          "name": "renter",
          "type": "address"
        },
        {
          "indexed": false,
          "internalType": "address",
          "name": "owner",
          "type": "address"
        },
        {
          "indexed": false,
          "internalType": "uint256",
          "name": "totalAmount",
          "type": "uint256"
        }
      ],
      "name": "RentalInitiated",
      "type": "event"
    },
    {
      "inputs": [
        {
          "internalType": "uint256",
          "name": "rentalId",
          "type": "uint256"
        }
      ],
      "name": "cancelRental",
      "outputs": [],
      "stateMutability": "nonpayable",
      "type": "function"
    },
    {
      "inputs": [],
      "name": "chaindriveWallet",
      "outputs": [
        {
          "internalType": "address payable",
          "name": "",
          "type": "address"
        }
      ],
      "stateMutability": "view",
      "type": "function"
    },
    {
      "inputs": [
        {
          "internalType": "uint256",
          "name": "rentalId",
          "type": "uint256"
        }
      ],
      "name": "completeRentalByOwner",
      "outputs": [],
      "stateMutability": "nonpayable",
      "type": "function"
    },
    {
      "inputs": [
        {
          "internalType": "uint256",
          "name": "rentalId",
          "type": "uint256"
        }
      ],
      "name": "completeRentalByRenter",
      "outputs": [],
      "stateMutability": "nonpayable",
      "type": "function"
    },
    {
      "inputs": [],
      "name": "getBalance",
      "outputs": [
        {
          "internalType": "uint256",
          "name": "",
          "type": "uint256"
        }
      ],
      "stateMutability": "view",
      "type": "function"
    },
    {
      "inputs": [],
      "name": "getTermsAndConditions",
      "outputs": [
        {
          "internalType": "string",
          "name": "",
          "type": "string"
        }
      ],
      "stateMutability": "pure",
      "type": "function"
    },
    {
      "inputs": [],
      "name": "getTermsConfig",
      "outputs": [
        {
          "components": [
            {
              "internalType": "uint256",
              "name": "lateFeePerHour",
              "type": "uint256"
            },
            {
              "internalType": "uint256",
              "name": "maxLateFeeMultiplier",
              "type": "uint256"
            },
            {
              "internalType": "uint256",
              "name": "damageAssessmentPeriod",
              "type": "uint256"
            },
            {
              "internalType": "uint256",
              "name": "violationPenaltyRate",
              "type": "uint256"
            }
          ],
          "internalType": "struct CarRentalUpgradeable.TermsConfig",
          "name": "",
          "type": "tuple"
        }
      ],
      "stateMutability": "pure",
      "type": "function"
    },
    {
      "inputs": [
        {
          "internalType": "address payable",
          "name": "_chaindriveWallet",
          "type": "address"
        }
      ],
      "name": "initialize",
      "outputs": [],
      "stateMutability": "nonpayable",
      "type": "function"
    },
    {
      "inputs": [
        {
          "internalType": "uint256",
          "name": "id",
          "type": "uint256"
        },
        {
          "internalType": "address payable",
          "name": "owner",
          "type": "address"
        },
        {
          "internalType": "uint256",
          "name": "rentalFee",
          "type": "uint256"
        },
        {
          "internalType": "uint256",
          "name": "securityDeposit",
          "type": "uint256"
        },
        {
          "internalType": "uint256",
          "name": "platformFee",
          "type": "uint256"
        }
      ],
      "name": "initiateRental",
      "outputs": [],
      "stateMutability": "payable",
      "type": "function"
    },
    {
      "inputs": [
        {
          "internalType": "uint256",
          "name": "",
          "type": "uint256"
        }
      ],
      "name": "rentals",
      "outputs": [
        {
          "internalType": "uint256",
          "name": "id",
          "type": "uint256"
        },
        {
          "internalType": "address payable",
          "name": "renter",
          "type": "address"
        },
        {
          "internalType": "address payable",
          "name": "owner",
          "type": "address"
        },
        {
          "internalType": "uint256",
          "name": "rentalFee",
          "type": "uint256"
        },
        {
          "internalType": "uint256",
          "name": "securityDeposit",
          "type": "uint256"
        },
        {
          "internalType": "uint256",
          "name": "platformFee",
          "type": "uint256"
        },
        {
          "internalType": "bool",
          "name": "renterConfirmed",
          "type": "bool"
        },
        {
          "internalType": "bool",
          "name": "ownerConfirmed",
          "type": "bool"
        },
        {
          "internalType": "bool",
          "name": "isCompleted",
          "type": "bool"
        }
      ],
      "stateMutability": "view",
      "type": "function"
    }
  ],
  "bytecode": "0x608080604052346100b8577ff0c57e16840df040f15088dc2f81fe391c3923bec73e23a9662efc9c229c6a009081549060ff8260401c166100a957506001600160401b036002600160401b031982821601610064575b604051610f6590816100be8239f35b6001600160401b031990911681179091556040519081527fc7f505b2f371ae2175ee4913f4499e1f2633a7b5936321eed1cdaeb6115181d290602090a1388080610055565b63f92ee8a960e01b8152600490fd5b600080fdfe6080604081815260048036101561001557600080fd5b600092833560e01c90816312065fe014610d595750806343ba1a1814610b39578063517f497f1461091e5780635e0dacb4146107985780639a75418914610722578063af94a1d11461068f578063c4d66de814610532578063e09bd82914610506578063f1e66761146102f05763fe4602011461009157600080fd5b346102ec57826003193601126102ec578151906101a082019082821067ffffffffffffffff8311176102d95750825261017a81526020907f312e204c4154452052455455524e3a204c6174652066656573206170706c7920828201527f666f7220657665727920686f7572207061737420746865206167726565642072838201527f657475726e2074696d652e20322e2044414d41474520524553504f4e5349424960608201527f4c4954593a2052656e7465722069732066756c6c7920726573706f6e7369626c60808201527f6520666f7220616e792064616d61676520746f207468652076656869636c652060a08201527f647572696e672072656e74616c20706572696f642e20332e20494c4c4547414c60c08201527f20414354495649544945533a20416e79206372696d696e616c206f7220696c6c60e08201527f6567616c206163746976697479207573696e67207468652072656e74656420766101008201527f656869636c65206d616b6573207468652072656e7465722066756c6c79206c696101208201527f61626c652e20342e205345435552495459204445504f5349543a204d617920626101408201527f65207061727469616c6c79206f722066756c6c7920666f7266656974656420666101608201527f6f722076696f6c6174696f6e73206f722064616d616765732e2000000000000061018082015282519382859384528251928382860152825b8481106102c357505050828201840152601f01601f19168101030190f35b81810183015188820188015287955082016102a5565b634e487b7160e01b855260419052602484fd5b8280fd5b5060a03660031901126102ec578035916024356001600160a01b038181169291839003610502576044356064359460843590610335826103308986610db4565b610db4565b968734036104c857888a526001602052846001878c2001541661048557855193610120850185811067ffffffffffffffff82111761047257948a9896948c947f1bf856314f46d6f760c45c4f899a307630d861d60201acee1b3a3ff7c0d7c9539c946006948b9960809e9c52868552602085013381528a8601908c8252606087019283528f870193845260a0870195865260c087019a8a8c528c60e089019b808d526101008a019b818d528152600160205220975188558060018901925116916bffffffffffffffffffffffff60a01b92838254161790556002880192511690825416179055516003850155519083015551600582015501925115159160ff62ff000061ff0086549351151560081b169351151560101b1693169062ffffff1916171717905580519384523360208501528301526060820152a180f35b634e487b7160e01b8c526041845260248cfd5b855162461bcd60e51b8152602081840152601860248201527f52656e74616c20494420616c72656164792065786973747300000000000000006044820152606490fd5b855162461bcd60e51b81526020818401526014602482015273125b98dbdc9c9958dd0811551208185b5bdd5b9d60621b6044820152606490fd5b8580fd5b50503461052e578160031936011261052e57905490516001600160a01b039091168152602090f35b5080fd5b50346102ec5760203660031901126102ec5780356001600160a01b038116919082900361068b577ff0c57e16840df040f15088dc2f81fe391c3923bec73e23a9662efc9c229c6a0091825460ff81861c16159267ffffffffffffffff821680159081610683575b6001149081610679575b159081610670575b50610662575067ffffffffffffffff198116600117845582610643575b506105d1610d73565b6105d9610d73565b6001600080516020610f108339815191525584546001600160a01b031916178455610602578280f35b805468ff00000000000000001916905551600181527fc7f505b2f371ae2175ee4913f4499e1f2633a7b5936321eed1cdaeb6115181d290602090a138808280f35b68ffffffffffffffffff191668010000000000000001178355386105c8565b855163f92ee8a960e01b8152fd5b905015386105ab565b303b1591506105a3565b859150610599565b8380fd5b50346102ec5760203660031901126102ec5780826101209460ff9335815260016020522080549360018060a01b03928360018401541693600284015416600384015491840154926006600586015495015495815198895260208901528701526060860152608085015260a0840152818116151560c0840152818160081c16151560e084015260101c161515610100820152f35b50503461052e578160031936011261052e576080916060610741610dd7565b82815282602082015282848201520152610759610dd7565b66038d7ea4c68000918282526020820191600383526060828201916202a300835201926032845282519485525160208501525190830152516060820152f35b5082903461052e57602036600319011261052e5780356107b6610edf565b8083526001602052838320916006830180546107d860ff8260101c1615610e48565b60ff8160081c166108cf57620100009062ff0000191617905561081161080660038501548386015490610db4565b600585015490610db4565b9060018401908580808060018060a01b0396878754165af1610831610e94565b501561089c5750546002939093015494519182526001600160a01b0392811683166020830152909316166040830152907fa4d7b315f71fd1fa270b50b01e7f22ad30201085cf9afe9c1c3d1b8fa7d9c69290606090a16001600080516020610f108339815191525580f35b606490602088519162461bcd60e51b8352820152600d60248201526c1499599d5b990819985a5b1959609a1b6044820152fd5b865162461bcd60e51b8152602081850152602360248201527f43616e6e6f742063616e63656c206166746572206f776e657220636f6e6669726044820152621b595960ea1b6064820152608490fd5b5082903461052e576020806003193601126102ec5781358084526001928383528585209060ff600660018060a01b039361095e8589830154163314610e0d565b01868154610971848260101c1615610e48565b8319161780915560081c16610984578580f35b61098c610edf565b82865284845286862090600682016201000062ff00001982541617905586808080868154166005870154905af16109c1610e94565b5015610af657600282019487808080878a54166003880154905af16109e4610e94565b5015610ab457878080808a8701968689895416910154905af1610a05610e94565b5015610a7257505054925495519182526001600160a01b039281168316602083015290941616604084015290917f96daffe51b50473e14b367a1cea4498415ad12875d80c21d6c8c0a097677c3c490606090a1600080516020610f10833981519152558082808080808580f35b885162461bcd60e51b815291820152601e60248201527f5365637572697479206465706f73697420726566756e64206661696c65640000604482015260649150fd5b885162461bcd60e51b815291820152601a60248201527f52656e74616c20666565207472616e73666572206661696c6564000000000000604482015260649150fd5b875162461bcd60e51b8152908101859052601c60248201527f506c6174666f726d20666565207472616e73666572206661696c6564000000006044820152606490fd5b5082903461052e57602090816003193601126102ec57803590818452600183528484209060ff600660018060a01b0393610b7a856002830154163314610e0d565b01805490610b8d838360101c1615610e48565b61ff0019821661010017905516610ba2578480f35b610baa610edf565b8285526001845285852090600682016201000062ff00001982541617905585808080868154166005870154905af1610be0610e94565b5015610d1657600282019486808080878a54166003880154905af1610c03610e94565b5015610cd4578680808060018701968689895416910154905af1610c25610e94565b5015610c9257505054925494519182526001600160a01b0392811683166020830152909316166040830152907f96daffe51b50473e14b367a1cea4498415ad12875d80c21d6c8c0a097677c3c490606090a16001600080516020610f108339815191525580828080808480f35b875162461bcd60e51b815291820152601e60248201527f5365637572697479206465706f73697420726566756e64206661696c65640000604482015260649150fd5b875162461bcd60e51b815291820152601a60248201527f52656e74616c20666565207472616e73666572206661696c6564000000000000604482015260649150fd5b865162461bcd60e51b8152908101859052601c60248201527f506c6174666f726d20666565207472616e73666572206661696c6564000000006044820152606490fd5b84903461052e578160031936011261052e57602090478152f35b60ff7ff0c57e16840df040f15088dc2f81fe391c3923bec73e23a9662efc9c229c6a005460401c1615610da257565b604051631afcd79f60e31b8152600490fd5b91908201809211610dc157565b634e487b7160e01b600052601160045260246000fd5b604051906080820182811067ffffffffffffffff821117610df757604052565b634e487b7160e01b600052604160045260246000fd5b15610e1457565b60405162461bcd60e51b815260206004820152600c60248201526b155b985d5d1a1bdc9a5e995960a21b6044820152606490fd5b15610e4f57565b60405162461bcd60e51b815260206004820152601860248201527f52656e74616c20616c726561647920636f6d706c6574656400000000000000006044820152606490fd5b3d15610eda5767ffffffffffffffff903d828111610df75760405192601f8201601f19908116603f0116840190811184821017610df75760405282523d6000602084013e565b606090565b600080516020610f108339815191526002815414610efd5760029055565b604051633ee5aeb560e01b8152600490fdfe9b779b17422d0df92223018b32b4d1fa46e071723d6817e2486d003becc55f00a26469706673582212204b39f518998fc97278c4281eb764419e6f98d23ed7f641ac42d30c154e155eed64736f6c63430008140033",
  "linkReferences": {},
  "deployedLinkReferences": {}
}