{
  "_format": "hh-sol-artifact-1",
  "contractName": "CarRental",
  "sourceName": "contracts/CarRental.sol",
  "abi": [
    {
      "inputs": [
        {
          "internalType": "address payable",
          "name": "_chaindriveWallet",
          "type": "address"
        }
      ],
      "stateMutability": "nonpayable",
      "type": "constructor"
    },
    {
      "anonymous": false,
      "inputs": [
        {
          "indexed": false,
          "internalType": "address",
          "name": "recipient",
          "type": "address"
        },
        {
          "indexed": false,
          "internalType": "uint256",
          "name": "amount",
          "type": "uint256"
        }
      ],
      "name": "FundsForwarded",
      "type": "event"
    },
    {
      "anonymous": false,
      "inputs": [
        {
          "indexed": false,
          "internalType": "address",
          "name": "sender",
          "type": "address"
        },
        {
          "indexed": false,
          "internalType": "uint256",
          "name": "amount",
          "type": "uint256"
        }
      ],
      "name": "FundsReceived",
      "type": "event"
    },
    {
      "inputs": [],
      "name": "chaindriveWallet",
      "outputs": [
        {
          "internalType": "address payable",
          "name": "",
          "type": "address"
        }
      ],
      "stateMutability": "view",
      "type": "function"
    },
    {
      "inputs": [],
      "name": "getBalance",
      "outputs": [
        {
          "internalType": "uint256",
          "name": "",
          "type": "uint256"
        }
      ],
      "stateMutability": "view",
      "type": "function"
    },
    {
      "stateMutability": "payable",
      "type": "receive"
    }
  ],
  "bytecode": "0x608060405234801561001057600080fd5b5060405161063b38038061063b833981810160405281019061003291906100db565b806000806101000a81548173ffffffffffffffffffffffffffffffffffffffff021916908373ffffffffffffffffffffffffffffffffffffffff16021790555050610108565b600080fd5b600073ffffffffffffffffffffffffffffffffffffffff82169050919050565b60006100a88261007d565b9050919050565b6100b88161009d565b81146100c357600080fd5b50565b6000815190506100d5816100af565b92915050565b6000602082840312156100f1576100f0610078565b5b60006100ff848285016100c6565b91505092915050565b610524806101176000396000f3fe60806040526004361061002d5760003560e01c806312065fe0146101db578063e09bd82914610206576101d6565b366101d65760003411610075576040517f08c379a000000000000000000000000000000000000000000000000000000000815260040161006c906102ba565b60405180910390fd5b7f8e47b87b0ef542cdfa1659c551d88bad38aa7f452d2bbb349ab7530dfec8be8f33346040516100a6929190610334565b60405180910390a160008060009054906101000a900473ffffffffffffffffffffffffffffffffffffffff1673ffffffffffffffffffffffffffffffffffffffff16346040516100f59061038e565b60006040518083038185875af1925050503d8060008114610132576040519150601f19603f3d011682016040523d82523d6000602084013e610137565b606091505b505090508061017b576040517f08c379a0000000000000000000000000000000000000000000000000000000008152600401610172906103ef565b60405180910390fd5b7f1ddb9940799fcccc2468d1a828bfa2aa7919823d13f2be973a25b396178531c260008054906101000a900473ffffffffffffffffffffffffffffffffffffffff16346040516101cc92919061046e565b60405180910390a1005b600080fd5b3480156101e757600080fd5b506101f0610231565b6040516101fd9190610497565b60405180910390f35b34801561021257600080fd5b5061021b610239565b60405161022891906104d3565b60405180910390f35b600047905090565b60008054906101000a900473ffffffffffffffffffffffffffffffffffffffff1681565b600082825260208201905092915050565b7f4d7573742073656e642045746865720000000000000000000000000000000000600082015250565b60006102a4600f8361025d565b91506102af8261026e565b602082019050919050565b600060208201905081810360008301526102d381610297565b9050919050565b600073ffffffffffffffffffffffffffffffffffffffff82169050919050565b6000610305826102da565b9050919050565b610315816102fa565b82525050565b6000819050919050565b61032e8161031b565b82525050565b6000604082019050610349600083018561030c565b6103566020830184610325565b9392505050565b600081905092915050565b50565b600061037860008361035d565b915061038382610368565b600082019050919050565b60006103998261036b565b9150819050919050565b7f5472616e73666572206661696c65640000000000000000000000000000000000600082015250565b60006103d9600f8361025d565b91506103e4826103a3565b602082019050919050565b60006020820190508181036000830152610408816103cc565b9050919050565b6000819050919050565b600061043461042f61042a846102da565b61040f565b6102da565b9050919050565b600061044682610419565b9050919050565b60006104588261043b565b9050919050565b6104688161044d565b82525050565b6000604082019050610483600083018561045f565b6104906020830184610325565b9392505050565b60006020820190506104ac6000830184610325565b92915050565b60006104bd826102da565b9050919050565b6104cd816104b2565b82525050565b60006020820190506104e860008301846104c4565b9291505056fea2646970667358221220e8925a0b51a5c226eaed91b535f9fa357ea4ec3afcf690c5a87f140d0b9a583164736f6c63430008140033",
  "linkReferences": {},
  "deployedLinkReferences": {}
}